{
  "address": "0xe12fe81F7dc4007f2A9Bb5C04Ec77330Ad44171E",
  "abi": [
    {
      "inputs": [
        {
          "internalType": "address",
          "name": "vrfCoordinatorV2",
          "type": "address"
        },
        {
          "internalType": "uint64",
          "name": "subscriptioId",
          "type": "uint64"
        },
        {
          "internalType": "bytes32",
          "name": "gasLane",
          "type": "bytes32"
        },
        {
          "internalType": "uint256",
          "name": "interval",
          "type": "uint256"
        },
        {
          "internalType": "uint256",
          "name": "entranceFee",
          "type": "uint256"
        },
        {
          "internalType": "uint32",
          "name": "callbackGasLimit",
          "type": "uint32"
        }
      ],
      "stateMutability": "nonpayable",
      "type": "constructor"
    },
    {
      "inputs": [],
      "name": "Lottery__TransferFailed",
      "type": "error"
    },
    {
      "inputs": [],
      "name": "Lottery__notEnoughEthForEntrance",
      "type": "error"
    },
    {
      "inputs": [],
      "name": "Lottery__notOpen",
      "type": "error"
    },
    {
      "inputs": [
        {
          "internalType": "uint256",
          "name": "lotteryBalance",
          "type": "uint256"
        },
        {
          "internalType": "uint256",
          "name": "numPlayers",
          "type": "uint256"
        },
        {
          "internalType": "uint256",
          "name": "lotteryState",
          "type": "uint256"
        }
      ],
      "name": "Lottery__upkeepNotNeeded",
      "type": "error"
    },
    {
      "inputs": [
        {
          "internalType": "address",
          "name": "have",
          "type": "address"
        },
        {
          "internalType": "address",
          "name": "want",
          "type": "address"
        }
      ],
      "name": "OnlyCoordinatorCanFulfill",
      "type": "error"
    },
    {
      "anonymous": false,
      "inputs": [
        {
          "indexed": true,
          "internalType": "address",
          "name": "playerAddress",
          "type": "address"
        }
      ],
      "name": "EnterLottery",
      "type": "event"
    },
    {
      "anonymous": false,
      "inputs": [
        {
          "indexed": false,
          "internalType": "address",
          "name": "winner",
          "type": "address"
        }
      ],
      "name": "WinnerPicked",
      "type": "event"
    },
    {
      "anonymous": false,
      "inputs": [
        {
          "indexed": true,
          "internalType": "uint256",
          "name": "requestId",
          "type": "uint256"
        }
      ],
      "name": "requestedLotteryWinner",
      "type": "event"
    },
    {
      "inputs": [
        {
          "internalType": "bytes",
          "name": "",
          "type": "bytes"
        }
      ],
      "name": "checkUpkeep",
      "outputs": [
        {
          "internalType": "bool",
          "name": "upkeepNeeded",
          "type": "bool"
        },
        {
          "internalType": "bytes",
          "name": "",
          "type": "bytes"
        }
      ],
      "stateMutability": "view",
      "type": "function"
    },
    {
      "inputs": [],
      "name": "enterLottery",
      "outputs": [],
      "stateMutability": "payable",
      "type": "function"
    },
    {
      "inputs": [],
      "name": "getEntranceFee",
      "outputs": [
        {
          "internalType": "uint256",
          "name": "",
          "type": "uint256"
        }
      ],
      "stateMutability": "view",
      "type": "function"
    },
    {
      "inputs": [],
      "name": "getLatestTimeStamp",
      "outputs": [
        {
          "internalType": "uint256",
          "name": "",
          "type": "uint256"
        }
      ],
      "stateMutability": "view",
      "type": "function"
    },
    {
      "inputs": [],
      "name": "getLotteryState",
      "outputs": [
        {
          "internalType": "enum Lottery.LotteryState",
          "name": "",
          "type": "uint8"
        }
      ],
      "stateMutability": "view",
      "type": "function"
    },
    {
      "inputs": [],
      "name": "getNumOfPlayers",
      "outputs": [
        {
          "internalType": "uint256",
          "name": "",
          "type": "uint256"
        }
      ],
      "stateMutability": "view",
      "type": "function"
    },
    {
      "inputs": [],
      "name": "getNumWords",
      "outputs": [
        {
          "internalType": "uint32",
          "name": "",
          "type": "uint32"
        }
      ],
      "stateMutability": "pure",
      "type": "function"
    },
    {
      "inputs": [
        {
          "internalType": "uint256",
          "name": "id",
          "type": "uint256"
        }
      ],
      "name": "getPlayer",
      "outputs": [
        {
          "internalType": "address",
          "name": "",
          "type": "address"
        }
      ],
      "stateMutability": "view",
      "type": "function"
    },
    {
      "inputs": [],
      "name": "getRecentWinner",
      "outputs": [
        {
          "internalType": "address",
          "name": "",
          "type": "address"
        }
      ],
      "stateMutability": "view",
      "type": "function"
    },
    {
      "inputs": [],
      "name": "getRequstConfiramtions",
      "outputs": [
        {
          "internalType": "uint256",
          "name": "",
          "type": "uint256"
        }
      ],
      "stateMutability": "pure",
      "type": "function"
    },
    {
      "inputs": [
        {
          "internalType": "bytes",
          "name": "",
          "type": "bytes"
        }
      ],
      "name": "performUpkeep",
      "outputs": [],
      "stateMutability": "nonpayable",
      "type": "function"
    },
    {
      "inputs": [
        {
          "internalType": "uint256",
          "name": "requestId",
          "type": "uint256"
        },
        {
          "internalType": "uint256[]",
          "name": "randomWords",
          "type": "uint256[]"
        }
      ],
      "name": "rawFulfillRandomWords",
      "outputs": [],
      "stateMutability": "nonpayable",
      "type": "function"
    }
  ],
  "transactionHash": "0x0a27799d9c07269ff51a234cf1e63df51d518ed68a0d64cb7d8590ace316f043",
  "args": [
    "0x6168499c0cFfCaCD319c818142124B7A15E857ab",
    "588",
    "0xd89b2bf150e3b9e13446986e571fb9cab24b13cea0a43ea20a6049a85cc807cc",
    "30",
    "100000000000000000",
    "500000"
  ],
  "numDeployments": 1,
  "solcInputHash": "6419cb9092db2abc0dccc88a77b8e0b1",
  "bytecode": "0x6101606040523480156200001257600080fd5b5060405162001840380380620018408339818101604052810190620000389190620002a0565b858073ffffffffffffffffffffffffffffffffffffffff1660808173ffffffffffffffffffffffffffffffffffffffff1660601b81525050508160a081815250508573ffffffffffffffffffffffffffffffffffffffff166101208173ffffffffffffffffffffffffffffffffffffffff1660601b815250508361014081815250508467ffffffffffffffff1660e08167ffffffffffffffff1660c01b815250508063ffffffff166101008163ffffffff1660e01b815250506000600360006101000a81548160ff021916908360018111156200011a57620001196200033c565b5b0217905550426002819055508260c081815250505050505050506200036b565b600080fd5b600073ffffffffffffffffffffffffffffffffffffffff82169050919050565b60006200016c826200013f565b9050919050565b6200017e816200015f565b81146200018a57600080fd5b50565b6000815190506200019e8162000173565b92915050565b600067ffffffffffffffff82169050919050565b620001c381620001a4565b8114620001cf57600080fd5b50565b600081519050620001e381620001b8565b92915050565b6000819050919050565b620001fe81620001e9565b81146200020a57600080fd5b50565b6000815190506200021e81620001f3565b92915050565b6000819050919050565b620002398162000224565b81146200024557600080fd5b50565b60008151905062000259816200022e565b92915050565b600063ffffffff82169050919050565b6200027a816200025f565b81146200028657600080fd5b50565b6000815190506200029a816200026f565b92915050565b60008060008060008060c08789031215620002c057620002bf6200013a565b5b6000620002d089828a016200018d565b9650506020620002e389828a01620001d2565b9550506040620002f689828a016200020d565b94505060606200030989828a0162000248565b93505060806200031c89828a0162000248565b92505060a06200032f89828a0162000289565b9150509295509295509295565b7f4e487b7100000000000000000000000000000000000000000000000000000000600052602160045260246000fd5b60805160601c60a05160c05160e05160c01c6101005160e01c6101205160601c61014051611460620003e060003960006104960152600061045a015260006104da015260006104b70152600061063a0152600081816102b401526106b30152600081816102da015261032e01526114606000f3fe6080604052600436106100a75760003560e01c8063565429de11610064578063565429de146101aa5780636b68c03c146101d55780636e04ff0d146102005780637867d4531461023e578063c1af578514610269578063e55ae4e814610273576100a7565b806309bc33a7146100ac5780631fe543e3146100d7578063320229eb146101005780634585e33b1461012b578063473f1ddc1461015457806353a2c19a1461017f575b600080fd5b3480156100b857600080fd5b506100c16102b0565b6040516100ce9190610b4c565b60405180910390f35b3480156100e357600080fd5b506100fe60048036038101906100f99190610d00565b6102d8565b005b34801561010c57600080fd5b50610115610398565b6040516101229190610b4c565b60405180910390f35b34801561013757600080fd5b50610152600480360381019061014d9190610db7565b6103a2565b005b34801561016057600080fd5b506101696105a2565b6040516101769190610e45565b60405180910390f35b34801561018b57600080fd5b506101946105cc565b6040516101a19190610e7f565b60405180910390f35b3480156101b657600080fd5b506101bf6105d5565b6040516101cc9190610b4c565b60405180910390f35b3480156101e157600080fd5b506101ea6105e1565b6040516101f79190610f11565b60405180910390f35b34801561020c57600080fd5b5061022760048036038101906102229190610fe1565b6105f8565b6040516102359291906110cd565b60405180910390f35b34801561024a57600080fd5b506102536106a4565b6040516102609190610b4c565b60405180910390f35b6102716106b1565b005b34801561027f57600080fd5b5061029a600480360381019061029591906110fd565b610820565b6040516102a79190610e45565b60405180910390f35b60007f0000000000000000000000000000000000000000000000000000000000000000905090565b7f000000000000000000000000000000000000000000000000000000000000000073ffffffffffffffffffffffffffffffffffffffff163373ffffffffffffffffffffffffffffffffffffffff161461038a57337f00000000000000000000000000000000000000000000000000000000000000006040517f1cf993f400000000000000000000000000000000000000000000000000000000815260040161038192919061112a565b60405180910390fd5b6103948282610867565b5050565b6000600254905090565b60006103bc604051806020016040528060008152506105f8565b5090508061042b5747600080549050600360009054906101000a900460ff1660018111156103ed576103ec610e9a565b5b6040517fbcf5e91e00000000000000000000000000000000000000000000000000000000815260040161042293929190611153565b60405180910390fd5b6001600360006101000a81548160ff0219169083600181111561045157610450610e9a565b5b021790555060007f000000000000000000000000000000000000000000000000000000000000000073ffffffffffffffffffffffffffffffffffffffff16635d3b1d307f00000000000000000000000000000000000000000000000000000000000000007f000000000000000000000000000000000000000000000000000000000000000060037f000000000000000000000000000000000000000000000000000000000000000060016040518663ffffffff1660e01b815260040161051b9594939291906111e3565b602060405180830381600087803b15801561053557600080fd5b505af1158015610549573d6000803e3d6000fd5b505050506040513d601f19601f8201168201806040525081019061056d919061124b565b9050807f8436886e362e85384c64d5af46721d434cb451102c48870819d9f8420f55317660405160405180910390a250505050565b6000600160009054906101000a900473ffffffffffffffffffffffffffffffffffffffff16905090565b60006001905090565b60008080549050905090565b6000600360009054906101000a900460ff16905090565b60006060600080600181111561061157610610610e9a565b5b600360009054906101000a900460ff16600181111561063357610632610e9a565b5b14905060007f00000000000000000000000000000000000000000000000000000000000000006002544261066791906112a7565b119050600080600080549050119050600080471190508380156106875750825b80156106905750815b80156106995750805b955050505050915091565b6000600361ffff16905090565b7f000000000000000000000000000000000000000000000000000000000000000034101561070b576040517ffe2a4aa300000000000000000000000000000000000000000000000000000000815260040160405180910390fd5b6000600181111561071f5761071e610e9a565b5b600360009054906101000a900460ff16600181111561074157610740610e9a565b5b14610778576040517fed918b3600000000000000000000000000000000000000000000000000000000815260040160405180910390fd5b6000339080600181540180825580915050600190039060005260206000200160009091909190916101000a81548173ffffffffffffffffffffffffffffffffffffffff021916908373ffffffffffffffffffffffffffffffffffffffff1602179055503373ffffffffffffffffffffffffffffffffffffffff167fde7ffaf8976e3b39d4fb74cd196ccae530bbcc6539e8f8e5db2cc61ef21b9ac260405160405180910390a2565b6000808281548110610835576108346112db565b5b9060005260206000200160009054906101000a900473ffffffffffffffffffffffffffffffffffffffff169050919050565b6000808054905082600081518110610882576108816112db565b5b60200260200101516108949190611339565b905060008082815481106108ab576108aa6112db565b5b9060005260206000200160009054906101000a900473ffffffffffffffffffffffffffffffffffffffff16905080600160006101000a81548173ffffffffffffffffffffffffffffffffffffffff021916908373ffffffffffffffffffffffffffffffffffffffff1602179055506000600360006101000a81548160ff0219169083600181111561093f5761093e610e9a565b5b0217905550600067ffffffffffffffff81111561095f5761095e610bbd565b5b60405190808252806020026020018201604052801561098d5781602001602082028036833780820191505090505b50600090805190602001906109a3929190610a8c565b504260028190555060008173ffffffffffffffffffffffffffffffffffffffff16476040516109d19061139b565b60006040518083038185875af1925050503d8060008114610a0e576040519150601f19603f3d011682016040523d82523d6000602084013e610a13565b606091505b5050905080610a4e576040517f1c94012000000000000000000000000000000000000000000000000000000000815260040160405180910390fd5b7f5b690ec4a06fe979403046eaeea5b3ce38524683c3001f662c8b5a829632f7df82604051610a7d919061140f565b60405180910390a15050505050565b828054828255906000526020600020908101928215610b05579160200282015b82811115610b045782518260006101000a81548173ffffffffffffffffffffffffffffffffffffffff021916908373ffffffffffffffffffffffffffffffffffffffff16021790555091602001919060010190610aac565b5b509050610b129190610b16565b5090565b5b80821115610b2f576000816000905550600101610b17565b5090565b6000819050919050565b610b4681610b33565b82525050565b6000602082019050610b616000830184610b3d565b92915050565b6000604051905090565b600080fd5b600080fd5b610b8481610b33565b8114610b8f57600080fd5b50565b600081359050610ba181610b7b565b92915050565b600080fd5b6000601f19601f8301169050919050565b7f4e487b7100000000000000000000000000000000000000000000000000000000600052604160045260246000fd5b610bf582610bac565b810181811067ffffffffffffffff82111715610c1457610c13610bbd565b5b80604052505050565b6000610c27610b67565b9050610c338282610bec565b919050565b600067ffffffffffffffff821115610c5357610c52610bbd565b5b602082029050602081019050919050565b600080fd5b6000610c7c610c7784610c38565b610c1d565b90508083825260208201905060208402830185811115610c9f57610c9e610c64565b5b835b81811015610cc85780610cb48882610b92565b845260208401935050602081019050610ca1565b5050509392505050565b600082601f830112610ce757610ce6610ba7565b5b8135610cf7848260208601610c69565b91505092915050565b60008060408385031215610d1757610d16610b71565b5b6000610d2585828601610b92565b925050602083013567ffffffffffffffff811115610d4657610d45610b76565b5b610d5285828601610cd2565b9150509250929050565b600080fd5b60008083601f840112610d7757610d76610ba7565b5b8235905067ffffffffffffffff811115610d9457610d93610d5c565b5b602083019150836001820283011115610db057610daf610c64565b5b9250929050565b60008060208385031215610dce57610dcd610b71565b5b600083013567ffffffffffffffff811115610dec57610deb610b76565b5b610df885828601610d61565b92509250509250929050565b600073ffffffffffffffffffffffffffffffffffffffff82169050919050565b6000610e2f82610e04565b9050919050565b610e3f81610e24565b82525050565b6000602082019050610e5a6000830184610e36565b92915050565b600063ffffffff82169050919050565b610e7981610e60565b82525050565b6000602082019050610e946000830184610e70565b92915050565b7f4e487b7100000000000000000000000000000000000000000000000000000000600052602160045260246000fd5b60028110610eda57610ed9610e9a565b5b50565b6000819050610eeb82610ec9565b919050565b6000610efb82610edd565b9050919050565b610f0b81610ef0565b82525050565b6000602082019050610f266000830184610f02565b92915050565b600080fd5b600067ffffffffffffffff821115610f4c57610f4b610bbd565b5b610f5582610bac565b9050602081019050919050565b82818337600083830152505050565b6000610f84610f7f84610f31565b610c1d565b905082815260208101848484011115610fa057610f9f610f2c565b5b610fab848285610f62565b509392505050565b600082601f830112610fc857610fc7610ba7565b5b8135610fd8848260208601610f71565b91505092915050565b600060208284031215610ff757610ff6610b71565b5b600082013567ffffffffffffffff81111561101557611014610b76565b5b61102184828501610fb3565b91505092915050565b60008115159050919050565b61103f8161102a565b82525050565b600081519050919050565b600082825260208201905092915050565b60005b8381101561107f578082015181840152602081019050611064565b8381111561108e576000848401525b50505050565b600061109f82611045565b6110a98185611050565b93506110b9818560208601611061565b6110c281610bac565b840191505092915050565b60006040820190506110e26000830185611036565b81810360208301526110f48184611094565b90509392505050565b60006020828403121561111357611112610b71565b5b600061112184828501610b92565b91505092915050565b600060408201905061113f6000830185610e36565b61114c6020830184610e36565b9392505050565b60006060820190506111686000830186610b3d565b6111756020830185610b3d565b6111826040830184610b3d565b949350505050565b6000819050919050565b61119d8161118a565b82525050565b600067ffffffffffffffff82169050919050565b6111c0816111a3565b82525050565b600061ffff82169050919050565b6111dd816111c6565b82525050565b600060a0820190506111f86000830188611194565b61120560208301876111b7565b61121260408301866111d4565b61121f6060830185610e70565b61122c6080830184610e70565b9695505050505050565b60008151905061124581610b7b565b92915050565b60006020828403121561126157611260610b71565b5b600061126f84828501611236565b91505092915050565b7f4e487b7100000000000000000000000000000000000000000000000000000000600052601160045260246000fd5b60006112b282610b33565b91506112bd83610b33565b9250828210156112d0576112cf611278565b5b828203905092915050565b7f4e487b7100000000000000000000000000000000000000000000000000000000600052603260045260246000fd5b7f4e487b7100000000000000000000000000000000000000000000000000000000600052601260045260246000fd5b600061134482610b33565b915061134f83610b33565b92508261135f5761135e61130a565b5b828206905092915050565b600081905092915050565b50565b600061138560008361136a565b915061139082611375565b600082019050919050565b60006113a682611378565b9150819050919050565b6000819050919050565b60006113d56113d06113cb84610e04565b6113b0565b610e04565b9050919050565b60006113e7826113ba565b9050919050565b60006113f9826113dc565b9050919050565b611409816113ee565b82525050565b60006020820190506114246000830184611400565b9291505056fea26469706673582212202f259a70b5d7f0e4f470fbe1d93c2d15f421f9e5f19203cfe1e1fd39fafc9d9064736f6c63430008080033",
  "devdoc": {
    "details": "It's using Chainlink VRF V2 and ChainLink keepers",
    "kind": "dev",
    "methods": {},
    "title": "Lottery contract",
    "version": 1
  },
  "userdoc": {
    "kind": "user",
    "methods": {},
    "version": 1
  },
  "storageLayout": {
    "storage": [
      {
        "astId": 234,
        "contract": "contracts/Lottery.sol:Lottery",
        "label": "s_players",
        "offset": 0,
        "slot": "0",
        "type": "t_array(t_address_payable)dyn_storage"
      },
      {
        "astId": 236,
        "contract": "contracts/Lottery.sol:Lottery",
        "label": "s_recentWinner",
        "offset": 0,
        "slot": "1",
        "type": "t_address"
      },
      {
        "astId": 240,
        "contract": "contracts/Lottery.sol:Lottery",
        "label": "s_lastTimestamp",
        "offset": 0,
        "slot": "2",
        "type": "t_uint256"
      },
      {
        "astId": 260,
        "contract": "contracts/Lottery.sol:Lottery",
        "label": "s_lotteryState",
        "offset": 0,
        "slot": "3",
        "type": "t_enum(LotteryState)231"
      }
    ],
    "types": {
      "t_address": {
        "encoding": "inplace",
        "label": "address",
        "numberOfBytes": "20"
      },
      "t_address_payable": {
        "encoding": "inplace",
        "label": "address payable",
        "numberOfBytes": "20"
      },
      "t_array(t_address_payable)dyn_storage": {
        "base": "t_address_payable",
        "encoding": "dynamic_array",
        "label": "address payable[]",
        "numberOfBytes": "32"
      },
      "t_enum(LotteryState)231": {
        "encoding": "inplace",
        "label": "enum Lottery.LotteryState",
        "numberOfBytes": "1"
      },
      "t_uint256": {
        "encoding": "inplace",
        "label": "uint256",
        "numberOfBytes": "32"
      }
    }
  }
}